{
  "_format": "hh-sol-artifact-1",
  "contractName": "MatchVerifier",
  "sourceName": "contracts/MatchVerifier.sol",
  "abi": [
    {
      "inputs": [],
      "stateMutability": "nonpayable",
      "type": "constructor"
    },
    {
      "anonymous": false,
      "inputs": [
        {
          "indexed": true,
          "internalType": "bytes32",
          "name": "matchId",
          "type": "bytes32"
        },
        {
          "indexed": true,
          "internalType": "bytes32",
          "name": "eventHash",
          "type": "bytes32"
        },
        {
          "indexed": false,
          "internalType": "uint256",
          "name": "timestamp",
          "type": "uint256"
        }
      ],
      "name": "MatchEventStored",
      "type": "event"
    },
    {
      "inputs": [
        {
          "internalType": "bytes32",
          "name": "",
          "type": "bytes32"
        }
      ],
      "name": "eventHash",
      "outputs": [
        {
          "internalType": "bytes32",
          "name": "",
          "type": "bytes32"
        }
      ],
      "stateMutability": "view",
      "type": "function"
    },
    {
      "inputs": [],
      "name": "owner",
      "outputs": [
        {
          "internalType": "address",
          "name": "",
          "type": "address"
        }
      ],
      "stateMutability": "view",
      "type": "function"
    },
    {
      "inputs": [
        {
          "internalType": "bytes32",
          "name": "matchId",
          "type": "bytes32"
        },
        {
          "internalType": "bytes32",
          "name": "hashValue",
          "type": "bytes32"
        }
      ],
      "name": "storeMatchEvent",
      "outputs": [],
      "stateMutability": "nonpayable",
      "type": "function"
    },
    {
      "inputs": [
        {
          "internalType": "bytes32",
          "name": "matchId",
          "type": "bytes32"
        },
        {
          "internalType": "bytes32",
          "name": "expectedHash",
          "type": "bytes32"
        }
      ],
      "name": "verifyMatchEvent",
      "outputs": [
        {
          "internalType": "bool",
          "name": "",
          "type": "bool"
        }
      ],
      "stateMutability": "view",
      "type": "function"
    }
  ],
  "bytecode": "0x608060405234801561001057600080fd5b50336000806101000a81548173ffffffffffffffffffffffffffffffffffffffff021916908373ffffffffffffffffffffffffffffffffffffffff1602179055506106c1806100606000396000f3fe608060405234801561001057600080fd5b506004361061004c5760003560e01c80633f8c5af41461005157806343b5ef30146100815780637955eaee146100b15780638da5cb5b146100cd575b600080fd5b61006b60048036038101906100669190610347565b6100eb565b60405161007891906103a2565b60405180910390f35b61009b600480360381019061009691906103bd565b61010b565b6040516100a891906103f9565b60405180910390f35b6100cb60048036038101906100c69190610347565b610123565b005b6100d56102e8565b6040516100e29190610455565b60405180910390f35b600081600160008581526020019081526020016000205414905092915050565b60016020528060005260406000206000915090505481565b60008054906101000a900473ffffffffffffffffffffffffffffffffffffffff1673ffffffffffffffffffffffffffffffffffffffff163373ffffffffffffffffffffffffffffffffffffffff16146101b1576040517f08c379a00000000000000000000000000000000000000000000000000000000081526004016101a8906104cd565b60405180910390fd5b6000801b82036101f6576040517f08c379a00000000000000000000000000000000000000000000000000000000081526004016101ed90610539565b60405180910390fd5b6000801b810361023b576040517f08c379a0000000000000000000000000000000000000000000000000000000008152600401610232906105a5565b60405180910390fd5b6000801b600160008481526020019081526020016000205414610293576040517f08c379a000000000000000000000000000000000000000000000000000000000815260040161028a90610637565b60405180910390fd5b80600160008481526020019081526020016000208190555080827f051ca86e2762ebedbf9cde3f673d67d851d55e3d435d2249d4937fd1a0b17535426040516102dc9190610670565b60405180910390a35050565b60008054906101000a900473ffffffffffffffffffffffffffffffffffffffff1681565b600080fd5b6000819050919050565b61032481610311565b811461032f57600080fd5b50565b6000813590506103418161031b565b92915050565b6000806040838503121561035e5761035d61030c565b5b600061036c85828601610332565b925050602061037d85828601610332565b9150509250929050565b60008115159050919050565b61039c81610387565b82525050565b60006020820190506103b76000830184610393565b92915050565b6000602082840312156103d3576103d261030c565b5b60006103e184828501610332565b91505092915050565b6103f381610311565b82525050565b600060208201905061040e60008301846103ea565b92915050565b600073ffffffffffffffffffffffffffffffffffffffff82169050919050565b600061043f82610414565b9050919050565b61044f81610434565b82525050565b600060208201905061046a6000830184610446565b92915050565b600082825260208201905092915050565b7f4d6174636856657269666965723a206f6e6c79206f776e657200000000000000600082015250565b60006104b7601983610470565b91506104c282610481565b602082019050919050565b600060208201905081810360008301526104e6816104aa565b9050919050565b7f4d6174636856657269666965723a20696e76616c6964206d6174636849640000600082015250565b6000610523601e83610470565b915061052e826104ed565b602082019050919050565b6000602082019050818103600083015261055281610516565b9050919050565b7f4d6174636856657269666965723a20696e76616c696420686173680000000000600082015250565b600061058f601b83610470565b915061059a82610559565b602082019050919050565b600060208201905081810360008301526105be81610582565b9050919050565b7f4d6174636856657269666965723a206576656e7420616c72656164792073746f60008201527f7265640000000000000000000000000000000000000000000000000000000000602082015250565b6000610621602383610470565b915061062c826105c5565b604082019050919050565b6000602082019050818103600083015261065081610614565b9050919050565b6000819050919050565b61066a81610657565b82525050565b60006020820190506106856000830184610661565b9291505056fea264697066735822122090a324475ab00d86c63cbb0ee394e2bbe5c3add82a21de66b95c66dd18277b8e64736f6c63430008130033",
  "linkReferences": {},
  "deployedLinkReferences": {}
}